:1000000019C028C027C026C025C024C023C022C0D4
:1000100022C020C01FC01EC01DC01CC01BC01AC0F3
:1000200019C018C017C016C015C014C013C012C024
:1000300011C010C011241FBECFEFCDBFDFE3DEBF64
:100040002FE3A0E8BFE301C01D92A538B207E1F796
:1000500041D0ACC0D5CF1F920F920FB60F92112492
:100060002F934F935F936F937F938F939F93AF9350
:10007000BF93EF93FF9381E080930B0A8091813FC0
:100080009091823FA091833FB091843F4B2F5527A1
:1000900066277727FA01E055FE47208120938106E5
:1000A000A05ABE4C8093813F9093823FA093833FA0
:1000B000B093843FFF91EF91BF91AF919F918F914A
:1000C0007F916F915F914F912F910F900FBE0F9085
:1000D0001F90189584E38093000484E080931704B4
:1000E0008093120488ED93E084BF9093600090E0C9
:1000F00084BF9093610092E09093A00021E420934C
:1001000080069093720693EE9093700623E630E09B
:100110002093260A3093270A91E090930A0A90933D
:10012000000A95E084BF90937C0080914101811189
:10013000FCCF82E080934701809151018111FCCF77
:1001400081E0809350019FE09093850196E0909329
:1001500094011092C10123E62093C6019093C80137
:1001600099E09093C5018093C0018093830184E05E
:1001700080939A01809100028160809300027894BC
:100180002FEF87E99AE3215080409040E1F700C0CB
:100190000000F894809100028E7F8093000280918D
:1001A00000048B7F809300047894FFCFF894FFCFF6
:1001B000CFCFCFCFCFCECECECDCDCDCCCCCBCACA6C
:1001C000C9C8C7C6C6C5C4C3C2C0BFBEBDBCBAB914
:1001D000B8B6B5B3B2B0AFADABAAA8A6A5A3A19F60
:1001E0009E9C9A98969492918F8D8B898785838116
:1001F0007F7D7B79777573716F6D6C6A68666462F9
:10020000605F5D5B5958565453514F4E4C4B4948B3
:100210004645444241403F3E3C3B3A393838373608
:100220003534343332323131313030302F2F2F2FBB
:100230002F2F2F2F2F3030303131313232333434B1
:100240003536373838393A3B3C3E3F4041424445E9
:100250004648494B4C4E4F5153545658595B5D5F7D
:1002600060626466686A6C6D6F71737577797B7DA7
:100270007F81838587898B8D8F91929496989A9CA4
:100280009E9FA1A3A5A6A8AAABADAFB0B2B3B5B6C9
:10029000B8B9BABCBDBEBFC0C2C3C4C5C6C6C7C854
:1002A000C9CACACBCCCCCDCDCDCECECECFCFCFCF81
:00000001FF
