:1000000019C028C027C026C025C024C023C09BC05B
:1000100035C020C01FC01EC01DC01CC076C01AC085
:1000200019C018C017C016C015C014C013C012C024
:1000300011C010C011241FBECFEFCDBFDFE3DEBF64
:100040002EE3A0E0BEE301C01D92AC30B207E1F7A1
:10005000A5D085C9D5CFDC012C91222371F030E0E9
:100060009091040895FFFCCF209302083F5FFD01AB
:10007000E30FF11D20812111F3CF08951F920F92FC
:100080000FB60F9211244F935F936F937F938F93CB
:100090009F93AF93BF93EF93FF9381E080930B0AFD
:1000A000E091013EF0E0EE59FC46808180938106AC
:1000B0004091063E5091073E6091083E7091093E86
:1000C0008091023E9091033EA091043EB091053E86
:1000D000840F951FA61FB71F8093063E9093073E7F
:1000E000A093083EB093093EB093013EFF91EF917B
:1000F000BF91AF919F918F917F916F915F914F9140
:100100000F900FBE0F901F9018951F920F920FB671
:100110000F9211248F939F938091200A9091210A2E
:1001200080930A3E90930B3E81E080938D0A8091EC
:10013000003E8F5F8093003E9F918F910F900FBE86
:100140000F901F9018951F920F920FB60F921124C7
:100150008F939F938091003E811108C081E080932E
:10016000000A809124048260809324048091200AF4
:100170009091210A019680930A3E90930B3E81E074
:10018000809353018091003E8F5F8093003E9F914A
:100190008F910F900FBE0F901F901895CF93DF9304
:1001A000CDB7DEB76597CDBFDEBF82E28093000496
:1001B00086E08093200484E08093170480933004C9
:1001C00010920404109224048091000484618093AE
:1001D0000004809104048B7F8093040480910404C4
:1001E0008061809304042FE73AE186E0215030409B
:1001F0008040E1F700C00000809104048260809399
:1002000004049FE72AE136E0915020403040E1F7B6
:1002100000C00000809104048D7F8093040421E1DC
:1002200030E088ED84BF20936100A09124110A2E54
:10023000000CBB0BBC5F2DE635E0B4D3DC01CB0179
:100240002AE0B595A795979587952A95D1F780933C
:1002500008089093090880E48093060820E093E55D
:100260008091040885FFFCCF909302082F5FE22F56
:10027000F0E0EE59FB4690819111F2CF8091400061
:1002800083FF1EC08091400088608093400020E082
:1002900092E58091040885FFFCCF909302082F5FC0
:1002A000E22FF0E0E759FB4690819111F2CF8FE801
:1002B00099E22AE0815090402040E1F700C0000020
:1002C00088ED97E084BF9093000193E084BF909302
:1002D00060008091630087FD0BC0A89583E294EFD6
:1002E0000197F1F700C000008091630087FFF5CF10
:1002F00090E088ED84BF909361003FE986E891E04B
:10030000315080409040E1F700C0000087E490E168
:10031000809308089093090820E092E580910408F2
:1003200085FFFCCF909302082F5FE22FF0E0EF579C
:10033000FB4690819111F2CF9FE926E831E0915080
:1003400020403040E1F700C00000A89587EA91E620
:100350000197F1F700C0000081E080938C0A8FEFD5
:100360009FE08093AE0A9093AF0A80918E0A80FF3F
:10037000FCCF81E08093800A1092000A7894A895BF
:100380008091003E813009F4B1C28091003E8230FC
:10039000B1F71092000AF894809124048D7F809325
:1003A000240480918E0A80FFFCCF1092800A8091F5
:1003B000200A9091210A8D35974008F49EC28091C1
:1003C000200A9091210A843A984008F096C20CE7DE
:1003D00010E0B0E18B2EB7E29B2E8091200A909125
:1003E000210A9F938F9385E994E99F938F9381E0EE
:1003F00090E08C0F9D1F9F938F93DFD499810F9076
:100400000F900F900F900F900F90992389F020E09C
:100410008091040885FFFCCF909302082F5FE1E0F4
:10042000F0E0EC0FFD1FE20FF11D90819111F0CF74
:100430009F928F928EE994E99F938F9321E030E011
:100440002C0F3D1F3F932F93B8D499810F900F909D
:100450000F900F900F900F90992389F020E08091DA
:10046000040885FFFCCF909302082F5FE1E0F0E0E5
:10047000EC0FFD1FE20FF11D90819111F0CF95E07F
:1004800088ED84BF90937C00809141018111FCCF65
:1004900082E08093470172E0772EE8E06E2EFBEA5F
:1004A000AF2EF4E9BF2E552453941092003E1092C3
:1004B000200A1092210A3DE0361508F415C2639413
:1004C000E72CF12CC62CD12C1F927F921F926F9299
:1004D000BF92AF9281E090E08C0F9D1F9F938F930E
:1004E0006CD49981CDBFDEBF992389F020E0809143
:1004F000040885FFFCCF909302082F5FE1E0F0E055
:10050000EC0FFD1FE20FF11D90819111F0CF509281
:100510005201809151018111FCCFC601880F991FB2
:10052000880F991F880F991F8160809350017894DC
:10053000A8958091003E8130D9F38091003E7812D9
:10054000F7CF1092000A809124048D7F80932404B9
:10055000F89480910A3E90910B3E8033954720F4A9
:1005600089E0871508F0A1CF809151018111FCCF5E
:10057000109250011092520180910A3E90910B3ED0
:100580009F938F9382ED94E99F938F9321E030E0C6
:100590002C0F3D1F3F932F9310D499810F900F90F4
:1005A0000F900F900F900F90992389F020E0809189
:1005B000040885FFFCCF909302082F5FE1E0F0E094
:1005C000EC0FFD1FE20FF11D90819111F0CFA09073
:1005D0000A3EB0900B3E82E090E0A0E0B0E09C01CB
:1005E000AD0104C0220F331F441F551FCA94D2F718
:1005F000D7011197E7D199D26B017C01B50180E059
:1006000090E093D29B01AC01C701B601EDD16B0123
:100610007C01B40180E090E088D29B01AC01C7016D
:10062000B60111D37DD352D24B015C017ED220E0C2
:1006300030E048EC52E4D8D173D348D29B01AC01EE
:10064000A4E6B0E0B5D16B017C011401261A370A8B
:10065000DC01CB0189589341A109B1098838934144
:10066000A105B10508F45EC1D701C60181519742C9
:10067000A109B109883C9243A105B10508F478C1EC
:10068000D701C601895D9945A109B109883D994500
:10069000A105B10508F47EC1D701C601815B934B6A
:1006A000A109B109803B934BA105B10508F469C1CB
:1006B00031E6C31637E6D30631E0E306F10408F469
:1006C00050C1412C512C612C56E4752E8AE08D8B43
:1006D000C701B6012AD220E030E04AE754E4B3D2A1
:1006E000A301920181D127E137EB41E557E4ABD279
:1006F00017D3ECD16093023E7093033E8093043E87
:100700009093053EBF92AF929F928F928BED94E9AA
:100710009F938F9321E030E02C0F3D1F3F932F9349
:100720004CD39981CDBFDEBF992389F020E0809121
:10073000040885FFFCCF909302082F5FE1E0F0E012
:10074000EC0FFD1FE20FF11D90819111F0CFFF9290
:10075000EF92DF92CF9287EE94E99F938F9381E09F
:1007600090E08C0F9D1F9F938F9327D39981CDBFCE
:10077000DEBF992389F020E08091040885FFFCCF3B
:10078000909302082F5FE1E0F0E0EC0FFD1FE20F15
:10079000F11D90819111F0CF3F922F9284EF94E957
:1007A0009F938F9381E090E08C0F9D1F9F938F9379
:1007B00004D399810F900F900F900F900F900F908E
:1007C000992389F020E08091040885FFFCCF909365
:1007D00002082F5FE1E0F0E0EC0FFD1FE20FF11DDA
:1007E00090819111F0CF8091053E8F938091043ECE
:1007F0008F938091033E8F938091023E8F9382E08E
:1008000095E99F938F9321E030E02C0F3D1F3F939C
:100810002F93D3D29981CDBFDEBF992389F020E0F9
:100820008091040885FFFCCF909302082F5FE1E0E0
:10083000F0E0EC0FFD1FE20FF11D90819111F0CF60
:100840008091040482608093040482E08093A0007D
:1008500091E4909380068093720683EE80937006F5
:100860000093260A1093270A81E080930A0A809356
:10087000000A95E088ED84BF90937C00809141014F
:100880008111FCCF82E08093470180915101811159
:10089000FCCF81E0809350013D893093850196E043
:1008A000909394011092C10123E62093C601909386
:1008B000C80199E09093C5018093C0019091000414
:1008C0009460909300048093830184E080939A0164
:1008D0008091000281608093000281E28A95F1F7A5
:1008E00000007894A895FECF7394EACD9091000A09
:1008F00091114BCD8093000A42CD8091200A9091B6
:10090000210A893B9E40B0F08091200A9091210AF3
:100910008734914178F409EF10E0A0E28A2EAEE42A
:100920009A2E5BCD412C512C612C44E4742E9EE018
:100930009D8BCECE8091200A9091210A84329341E2
:1009400008F44BCD8091200A9091210A8737964177
:1009500008F043CD04E411E080E9882E85E6982E66
:100960003CCD412C512C80E7682E81E4782EB0CE0E
:10097000412C512C30E8632E34E4732E2DE02D8B66
:10098000A7CE412C512C90E8692E95E4792E8BE06E
:100990008D8B9ECE412C512C612C25E4722E3CE097
:1009A0003D8B96CE15D0B7FF0895821B930B08950B
:1009B0000FD0A59F900DB49F900DA49F800D911D09
:1009C00011240895B7FFF4CFF3DF821B930B089532
:1009D000A29FB001B39FC001A39F01D0B29F700D31
:1009E000811D1124911D08950E9408050C94E905AC
:1009F0000E94E20558F00E94DB0540F029F45F3FB9
:100A000029F00C94D20551110C941D060C94D805B4
:100A10000E94FA0568F39923B1F3552391F3951BCE
:100A2000550BBB27AA2762177307840738F09F5F0F
:100A30005F4F220F331F441FAA1FA9F335D00E2E7C
:100A40003AF0E0E832D091505040E695001CCAF7E9
:100A50002BD0FE2F29D0660F771F881FBB1F2617AC
:100A600037074807AB07B0E809F0BB0B802DBF0183
:100A7000FF2793585F4F3AF09E3F510578F00C9452
:100A8000D2050C941D065F3FE4F3983ED4F386959F
:100A900077956795B795F7959F5FC9F7880F911D73
:100AA0009695879597F90895E1E0660F771F881F5F
:100AB000BB1F621773078407BA0720F0621B730B12
:100AC000840BBA0BEE1F88F7E09508950E9402068A
:100AD00088F09F5798F0B92F9927B751B0F0E1F0FF
:100AE000660F771F881F991F1AF0BA95C9F714C0AF
:100AF000B13091F00E941C06B1E008950C941C06E0
:100B0000672F782F8827B85F39F0B93FCCF38695E7
:100B100077956795B395D9F73EF490958095709544
:100B200061957F4F8F4F9F4F0895E89409C097FBC1
:100B30003EF490958095709561957F4F8F4F9F4FB4
:100B40009923A9F0F92F96E9BB279395F6958795F8
:100B500077956795B795F111F8CFFAF4BB0F11F4BB
:100B600060FF1BC06F5F7F4F8F4F9F4F16C0882362
:100B700011F096E911C0772321F09EE8872F762F98
:100B800005C0662371F096E8862F70E060E02AF0D9
:100B90009A95660F771F881FDAF7880F96958795C5
:100BA00097F9089597F99F6780E870E060E00895ED
:100BB0009FEF80EC089500240A9416161706180675
:100BC0000906089500240A94121613061406050651
:100BD0000895092E0394000C11F4882352F0BB0FE2
:100BE00040F4BF2B11F460FF04C06F5F7F4F8F4F45
:100BF0009F4F089557FD9058440F551F59F05F3F80
:100C000071F04795880F97FB991F61F09F3F79F02E
:100C100087950895121613061406551FF2CF4695B0
:100C2000F1DF08C0161617061806991FF1CF869532
:100C30007105610508940895E894BB276627772716
:100C4000CB0197F908950E9436060C94E9050E949D
:100C5000DB0538F00E94E20520F0952311F00C949A
:100C6000D2050C94D80511240C941D060E94FA0597
:100C700070F3959FC1F3950F50E0551F629FF001EF
:100C8000729FBB27F00DB11D639FAA27F00DB11D08
:100C9000AA1F649F6627B00DA11D661F829F222791
:100CA000B00DA11D621F739FB00DA11D621F839F18
:100CB000A00D611D221F749F3327A00D611D231FEE
:100CC000849F600D211D822F762F6A2F11249F573C
:100CD00050409AF0F1F088234AF0EE0FFF1FBB1F3F
:100CE000661F771F881F91505040A9F79E3F5105FE
:100CF00080F00C94D2050C941D065F3FE4F3983EFF
:100D0000D4F3869577956795B795F795E7959F5FA7
:100D1000C1F7FE2B880F911D9695879597F9089539
:100D20000E940206E8F09E37E8F09639B8F49E3843
:100D300048F4672F782F8827985FF9CF86957795A5
:100D4000679593959539D0F3B62FB1706B0F711DE0
:100D5000811D20F487957795679593950C94B4063B
:100D60000C94CF060C941D06882371F4772321F090
:100D70009850872B762F07C0662311F499270DC052
:100D80009051862B70E060E02AF09A95660F771FED
:100D9000881FDAF7880F9695879597F908959F3FF2
:100DA00031F0915020F4879577956795B795880F26
:100DB000911D9695879597F90895AEE0B0E0E2EE23
:100DC000F6E0AAC20D891E8986E08C8309831A8306
:100DD0008FEF9FE78D839E83AE01475E5F4F6F89E4
:100DE000788DCE01019608D0EF81F885E00FF11FD4
:100DF00010822E96E4E0A9C2ABE0B0E0E1E0F7E0BB
:100E00007DC26C017B018A01FC01168217828381FD
:100E100081FFBFC1CE0101963C01F6019381F7012C
:100E200093FD859193FF81917F01882309F4ADC1E2
:100E3000853239F493FD859193FF81917F0185324D
:100E400021F4B60190E0C0D1E8CF912C212C312CB7
:100E5000FFE1F315D8F08B3279F038F4803279F075
:100E60008332A1F4232D20611DC08D3261F08033C7
:100E700069F4232D216016C0832D8260382EE32D66
:100E8000E4603E2E2AC0F32DF8601DC037FC2DC053
:100E900020ED280F2A3040F08E32B9F436FC75C1AF
:100EA000232D2064322E19C036FE06C08AE0989E9B
:100EB000200D1124922E11C0EAE02E9E200D112447
:100EC000222EF32DF0623F2E08C08C3621F4832DA4
:100ED0008068382E02C0883641F4F70193FD859171
:100EE00093FF81917F018111B3CF982F9F7D9554FE
:100EF000933028F40C5F1F4F9FE399830DC0833616
:100F000031F0833771F0833509F055C020C0F80106
:100F1000808189830E5F1F4F88248394912C530115
:100F200012C02801F2E04F0E511CF801A080B180E0
:100F300036FE03C0692D70E002C06FEF7FEFC50180
:100F400038D14C018201F32DFF773F2E15C02801C7
:100F500022E0420E511CF801A080B18036FE03C091
:100F6000692D70E002C06FEF7FEFC50117D14C0112
:100F7000F32DF0683F2E820133FC19C0822D90E0E2
:100F800088169906A0F4B60180E290E01DD12A945B
:100F9000F5CFF50137FC859137FE81915F01B601F0
:100FA00090E012D121102A9421E0821A9108811434
:100FB000910479F7E1C0843611F0893639F5F801EA
:100FC00037FE07C060817181828193810C5F1F4F62
:100FD00008C060817181072E000C880B990B0E5F91
:100FE0001F4FF32DFF763F2E97FF09C090958095F8
:100FF000709561957F4F8F4F9F4FF0683F2E2AE08D
:1010000030E0A3011DD1882E861844C0853731F405
:10101000232D2F7EB22E2AE030E025C0932D997F1C
:10102000B92E8F36C1F018F4883579F0AEC080370C
:1010300019F0883721F0A9C0E92FE061BE2EB4FE77
:101040000DC0FB2DF460BF2E09C034FE0AC0292F4D
:101050002660B22E06C028E030E005C020E130E076
:1010600002C020E132E0F801B7FE07C06081718163
:10107000828193810C5F1F4F06C06081718180E087
:1010800090E00E5F1F4FA301DBD0882E8618FB2D4A
:10109000FF773F2E36FE0DC0232D2E7FA22E891402
:1010A00058F434FE0BC032FC09C0832D8E7EA82E6E
:1010B00005C0B82CA32C03C0B82C01C0B92CA4FEC9
:1010C0000FC0FE01E80DF11D8081803321F49A2DBF
:1010D000997EA92E09C0A2FE06C0B394B39404C0A1
:1010E0008A2D867809F0B394A3FC10C0A0FE06C038
:1010F000B21480F4280C922C9B180DC0B21458F432
:10110000B60180E290E060D0B394F8CFB21418F446
:101110002B1802C0982C212CA4FE0FC0B60180E32E
:1011200090E052D0A2FE16C0A1FC03C088E790E078
:1011300002C088E590E0B6010CC08A2D867851F097
:10114000A1FE02C08BE201C080E2A7FC8DE2B601E5
:1011500090E03AD0891430F4B60180E390E034D0C6
:101160009A94F8CF8A94F301E80DF11D8081B601BD
:1011700090E02AD08110F6CF222009F44ECEB6019D
:1011800080E290E021D02A94F7CFF6018681978102
:1011900002C08FEF9FEF2B96E2E1C9C0FC010590E2
:1011A000615070400110D8F7809590958E0F9F1F69
:1011B0000895FC016150704001900110D8F78095AE
:1011C00090958E0F9F1F08950F931F93CF93DF93DA
:1011D000FB01238121FD03C08FEF9FEF2CC022FF75
:1011E00016C046815781248135814217530744F444
:1011F000A081B1819D012F5F3F4F208331838C936C
:10120000268137812F5F3F4F2683378314C08B01A0
:10121000EC01FB010084F185E02D0995892BE1F6B5
:10122000D80116968D919C911797019616968D93DD
:101230009C931797CE01DF91CF911F910F91089545
:10124000FA01AA27283051F1203181F1E8946F93F7
:101250006E7F6E5F7F4F8F4F9F4FAF4FB1E03ED09D
:10126000B4E03CD0670F781F891F9A1FA11D680F3B
:10127000791F8A1F911DA11D6A0F711D811D911D6E
:10128000A11D20D009F468943F912AE0269F1124E3
:101290003019305D3193DEF6CF010895462F477047
:1012A000405D4193B3E00FD0C9F7F6CF462F4F70A2
:1012B000405D4A3318F0495D31FD4052419302D000
:1012C000A9F7EACFB4E0A6959795879577956795A6
:1012D000BA95C9F700976105710508959B01AC01A6
:1012E0000A2E06945795479537952795BA95C9F7CD
:1012F000620F731F841F951FA01D08952F923F92A8
:101300004F925F926F927F928F929F92AF92BF9215
:10131000CF92DF92EF92FF920F931F93CF93DF93C1
:10132000CDB7DEB7CA1BDB0BCDBFDEBF09942A8861
:10133000398848885F846E847D848C849B84AA84E9
:10134000B984C884DF80EE80FD800C811B81AA8176
:10135000B981CE0FD11DCDBFDEBFED010895F89448
:02136000FFCFBD
:10136200CFCFCFCFCFCECECECDCDCDCCCCCBCACAA8
:10137200C9C8C7C6C6C5C4C3C2C0BFBEBDBCBAB950
:10138200B8B6B5B3B2B0AFADABAAA8A6A5A3A19F9C
:101392009E9C9A98969492918F8D8B898785838152
:1013A2007F7D7B79777573716F6D6C6A6866646235
:1013B200605F5D5B5958565453514F4E4C4B4948F0
:1013C2004645444241403F3E3C3B3A393838373645
:1013D2003534343332323131313030302F2F2F2FF8
:1013E2002F2F2F2F2F3030303131313232333434EE
:1013F2003536373838393A3B3C3E3F404142444526
:101402004648494B4C4E4F5153545658595B5D5FB9
:1014120060626466686A6C6D6F71737577797B7DE3
:101422007F81838587898B8D8F91929496989A9CE0
:101432009E9FA1A3A5A6A8AAABADAFB0B2B3B5B605
:10144200B8B9BABCBDBEBFC0C2C3C4C5C6C6C7C890
:10145200C9CACACBCCCCCDCDCDCECECECFCFCFCFBD
:1014620053746172740A0052657374617274202D30
:10147200206E6F2072656620636C6F636B0A005288
:10148200656620636C6F636B206465746563746565
:10149200640A00434E543A2025750A005265663AA2
:1014A200202575206B487A0A0054727920564358D9
:1014B2004F206D6561732077697468206469763D99
:1014C200257820616E642073746F703D25640A0074
:1014D200636170743D25750A00663A20256C75209B
:1014E2006B487A0A0066723A20256C75206B487A3E
:1014F2000A00646966663A202575206B487A0A00FC
:0A1502004654573A20256C750A0084
:00000001FF
